{
  "_format": "hh-sol-artifact-1",
  "contractName": "admin_manufacture",
  "sourceName": "contracts/Signup.sol",
  "abi": [
    {
      "inputs": [],
      "stateMutability": "nonpayable",
      "type": "constructor"
    },
    {
      "inputs": [],
      "name": "creationTime",
      "outputs": [
        {
          "internalType": "uint256",
          "name": "",
          "type": "uint256"
        }
      ],
      "stateMutability": "view",
      "type": "function"
    },
    {
      "inputs": [
        {
          "internalType": "enum admin_manufacture.Role",
          "name": "role",
          "type": "uint8"
        }
      ],
      "name": "getRoleName",
      "outputs": [
        {
          "internalType": "string",
          "name": "",
          "type": "string"
        }
      ],
      "stateMutability": "pure",
      "type": "function"
    },
    {
      "inputs": [
        {
          "internalType": "address",
          "name": "userAddress",
          "type": "address"
        }
      ],
      "name": "getUser",
      "outputs": [
        {
          "internalType": "string",
          "name": "firstName",
          "type": "string"
        },
        {
          "internalType": "string",
          "name": "lastName",
          "type": "string"
        },
        {
          "internalType": "string",
          "name": "companyName",
          "type": "string"
        },
        {
          "internalType": "string",
          "name": "email",
          "type": "string"
        },
        {
          "internalType": "string",
          "name": "phoneNumber",
          "type": "string"
        },
        {
          "internalType": "string",
          "name": "password",
          "type": "string"
        },
        {
          "internalType": "string",
          "name": "confirmPassword",
          "type": "string"
        },
        {
          "internalType": "string",
          "name": "roleName",
          "type": "string"
        },
        {
          "internalType": "address",
          "name": "walletAddress",
          "type": "address"
        }
      ],
      "stateMutability": "view",
      "type": "function"
    },
    {
      "inputs": [
        {
          "internalType": "string",
          "name": "email",
          "type": "string"
        },
        {
          "internalType": "string",
          "name": "password",
          "type": "string"
        }
      ],
      "name": "getUserByEmailAndPassword",
      "outputs": [
        {
          "internalType": "string",
          "name": "firstName",
          "type": "string"
        },
        {
          "internalType": "string",
          "name": "lastName",
          "type": "string"
        },
        {
          "internalType": "string",
          "name": "companyName",
          "type": "string"
        },
        {
          "internalType": "string",
          "name": "phoneNumber",
          "type": "string"
        },
        {
          "internalType": "string",
          "name": "confirmPassword",
          "type": "string"
        },
        {
          "internalType": "enum admin_manufacture.Role",
          "name": "role",
          "type": "uint8"
        },
        {
          "internalType": "address",
          "name": "walletAddress",
          "type": "address"
        }
      ],
      "stateMutability": "view",
      "type": "function"
    },
    {
      "inputs": [],
      "name": "owner",
      "outputs": [
        {
          "internalType": "address",
          "name": "",
          "type": "address"
        }
      ],
      "stateMutability": "view",
      "type": "function"
    },
    {
      "inputs": [
        {
          "internalType": "string",
          "name": "firstName",
          "type": "string"
        },
        {
          "internalType": "string",
          "name": "lastName",
          "type": "string"
        },
        {
          "internalType": "string",
          "name": "companyName",
          "type": "string"
        },
        {
          "internalType": "string",
          "name": "email",
          "type": "string"
        },
        {
          "internalType": "string",
          "name": "phoneNumber",
          "type": "string"
        },
        {
          "internalType": "string",
          "name": "password",
          "type": "string"
        },
        {
          "internalType": "string",
          "name": "confirmPassword",
          "type": "string"
        },
        {
          "internalType": "enum admin_manufacture.Role",
          "name": "role",
          "type": "uint8"
        }
      ],
      "name": "registerUser",
      "outputs": [],
      "stateMutability": "nonpayable",
      "type": "function"
    },
    {
      "inputs": [],
      "name": "userCount",
      "outputs": [
        {
          "internalType": "uint256",
          "name": "",
          "type": "uint256"
        }
      ],
      "stateMutability": "view",
      "type": "function"
    },
    {
      "inputs": [
        {
          "internalType": "address",
          "name": "",
          "type": "address"
        }
      ],
      "name": "users",
      "outputs": [
        {
          "internalType": "string",
          "name": "firstName",
          "type": "string"
        },
        {
          "internalType": "string",
          "name": "lastName",
          "type": "string"
        },
        {
          "internalType": "string",
          "name": "companyName",
          "type": "string"
        },
        {
          "internalType": "string",
          "name": "email",
          "type": "string"
        },
        {
          "internalType": "string",
          "name": "phoneNumber",
          "type": "string"
        },
        {
          "internalType": "string",
          "name": "password",
          "type": "string"
        },
        {
          "internalType": "string",
          "name": "confirmPassword",
          "type": "string"
        },
        {
          "internalType": "enum admin_manufacture.Role",
          "name": "role",
          "type": "uint8"
        },
        {
          "internalType": "address",
          "name": "walletAddress",
          "type": "address"
        }
      ],
      "stateMutability": "view",
      "type": "function"
    }
  ],
  "bytecode": "0x608060405234801561001057600080fd5b50600080546001600160a01b0319163317815542600155600355611947806100396000396000f3fe608060405234801561001057600080fd5b50600436106100885760003560e01c80638da5cb5b1161005b5780638da5cb5b1461010c578063a87430ba14610137578063d5afdbb01461015f578063d8270dce1461017f57600080fd5b806307973ccf1461008d57806313e11f92146100a95780636f77926b146100cf5780638af0a7c6146100f7575b600080fd5b61009660035481565b6040519081526020015b60405180910390f35b6100bc6100b7366004611355565b610188565b6040516100a0979695949392919061144d565b6100e26100dd3660046114db565b6105f2565b6040516100a09998979695949392919061150b565b61010a6101053660046115df565b610add565b005b60005461011f906001600160a01b031681565b6040516001600160a01b0390911681526020016100a0565b61014a6101453660046114db565b610ce8565b6040516100a09998979695949392919061170b565b61017261016d3660046117c7565b6110f4565b6040516100a091906117e2565b61009660015481565b336000818152600260209081526040808320905160609485948594859485949293849390926101b9918d91016117f5565b60405160208183030381529060405280519060200120816003016040516020016101e3919061184c565b604051602081830303815290604052805190602001201461024b5760405162461bcd60e51b815260206004820152601a60248201527f496e76616c696420656d61696c206f722070617373776f72642e00000000000060448201526064015b60405180910390fd5b8960405160200161025c91906117f5565b6040516020818303038152906040528051906020012081600501604051602001610286919061184c565b60405160208183030381529060405280519060200120146102e95760405162461bcd60e51b815260206004820152601a60248201527f496e76616c696420656d61696c206f722070617373776f72642e0000000000006044820152606401610242565b600781015481548291600183019160028401916004850191600686019160ff8116916101009091046001600160a01b031690879061032690611811565b80601f016020809104026020016040519081016040528092919081815260200182805461035290611811565b801561039f5780601f106103745761010080835404028352916020019161039f565b820191906000526020600020905b81548152906001019060200180831161038257829003601f168201915b505050505096508580546103b290611811565b80601f01602080910402602001604051908101604052809291908181526020018280546103de90611811565b801561042b5780601f106104005761010080835404028352916020019161042b565b820191906000526020600020905b81548152906001019060200180831161040e57829003601f168201915b5050505050955084805461043e90611811565b80601f016020809104026020016040519081016040528092919081815260200182805461046a90611811565b80156104b75780601f1061048c576101008083540402835291602001916104b7565b820191906000526020600020905b81548152906001019060200180831161049a57829003601f168201915b505050505094508380546104ca90611811565b80601f01602080910402602001604051908101604052809291908181526020018280546104f690611811565b80156105435780601f1061051857610100808354040283529160200191610543565b820191906000526020600020905b81548152906001019060200180831161052657829003601f168201915b5050505050935082805461055690611811565b80601f016020809104026020016040519081016040528092919081815260200182805461058290611811565b80156105cf5780601f106105a4576101008083540402835291602001916105cf565b820191906000526020600020905b8154815290600101906020018083116105b257829003601f168201915b505050505092509850985098509850985098509850505092959891949750929550565b606080606080606080606080600080600260008c6001600160a01b03166001600160a01b031681526020019081526020016000206040518061012001604052908160008201805461064290611811565b80601f016020809104026020016040519081016040528092919081815260200182805461066e90611811565b80156106bb5780601f10610690576101008083540402835291602001916106bb565b820191906000526020600020905b81548152906001019060200180831161069e57829003601f168201915b505050505081526020016001820180546106d490611811565b80601f016020809104026020016040519081016040528092919081815260200182805461070090611811565b801561074d5780601f106107225761010080835404028352916020019161074d565b820191906000526020600020905b81548152906001019060200180831161073057829003601f168201915b5050505050815260200160028201805461076690611811565b80601f016020809104026020016040519081016040528092919081815260200182805461079290611811565b80156107df5780601f106107b4576101008083540402835291602001916107df565b820191906000526020600020905b8154815290600101906020018083116107c257829003601f168201915b505050505081526020016003820180546107f890611811565b80601f016020809104026020016040519081016040528092919081815260200182805461082490611811565b80156108715780601f1061084657610100808354040283529160200191610871565b820191906000526020600020905b81548152906001019060200180831161085457829003601f168201915b5050505050815260200160048201805461088a90611811565b80601f01602080910402602001604051908101604052809291908181526020018280546108b690611811565b80156109035780601f106108d857610100808354040283529160200191610903565b820191906000526020600020905b8154815290600101906020018083116108e657829003601f168201915b5050505050815260200160058201805461091c90611811565b80601f016020809104026020016040519081016040528092919081815260200182805461094890611811565b80156109955780601f1061096a57610100808354040283529160200191610995565b820191906000526020600020905b81548152906001019060200180831161097857829003601f168201915b505050505081526020016006820180546109ae90611811565b80601f01602080910402602001604051908101604052809291908181526020018280546109da90611811565b8015610a275780601f106109fc57610100808354040283529160200191610a27565b820191906000526020600020905b815481529060010190602001808311610a0a57829003601f168201915b5050509183525050600782015460209091019060ff166003811115610a4e57610a4e611415565b6003811115610a5f57610a5f611415565b81526007919091015461010090046001600160a01b031660209091015260e0810151909150600090610a90906110f4565b9050816000015182602001518360400151846060015185608001518660a001518760c00151878961010001519a509a509a509a509a509a509a509a509a5050509193959799909294969850565b3360008181526002602052604081206007015460ff166003811115610b0457610b04611415565b14610b515760405162461bcd60e51b815260206004820152601860248201527f5573657220616c726561647920726567697374657265642e00000000000000006044820152606401610242565b6040518061012001604052808a8152602001898152602001888152602001878152602001868152602001858152602001848152602001836003811115610b9957610b99611415565b81526001600160a01b038316602091820181905260009081526002825260409020825180519192610bcf92849290910190611219565b506020828101518051610be89260018501920190611219565b5060408201518051610c04916002840191602090910190611219565b5060608201518051610c20916003840191602090910190611219565b5060808201518051610c3c916004840191602090910190611219565b5060a08201518051610c58916005840191602090910190611219565b5060c08201518051610c74916006840191602090910190611219565b5060e082015160078201805460ff19166001836003811115610c9857610c98611415565b0217905550610100918201516007919091018054610100600160a81b0319166001600160a01b0390921690920217905560038054906000610cd8836118e8565b9190505550505050505050505050565b600260205260009081526040902080548190610d0390611811565b80601f0160208091040260200160405190810160405280929190818152602001828054610d2f90611811565b8015610d7c5780601f10610d5157610100808354040283529160200191610d7c565b820191906000526020600020905b815481529060010190602001808311610d5f57829003601f168201915b505050505090806001018054610d9190611811565b80601f0160208091040260200160405190810160405280929190818152602001828054610dbd90611811565b8015610e0a5780601f10610ddf57610100808354040283529160200191610e0a565b820191906000526020600020905b815481529060010190602001808311610ded57829003601f168201915b505050505090806002018054610e1f90611811565b80601f0160208091040260200160405190810160405280929190818152602001828054610e4b90611811565b8015610e985780601f10610e6d57610100808354040283529160200191610e98565b820191906000526020600020905b815481529060010190602001808311610e7b57829003601f168201915b505050505090806003018054610ead90611811565b80601f0160208091040260200160405190810160405280929190818152602001828054610ed990611811565b8015610f265780601f10610efb57610100808354040283529160200191610f26565b820191906000526020600020905b815481529060010190602001808311610f0957829003601f168201915b505050505090806004018054610f3b90611811565b80601f0160208091040260200160405190810160405280929190818152602001828054610f6790611811565b8015610fb45780601f10610f8957610100808354040283529160200191610fb4565b820191906000526020600020905b815481529060010190602001808311610f9757829003601f168201915b505050505090806005018054610fc990611811565b80601f0160208091040260200160405190810160405280929190818152602001828054610ff590611811565b80156110425780601f1061101757610100808354040283529160200191611042565b820191906000526020600020905b81548152906001019060200180831161102557829003601f168201915b50505050509080600601805461105790611811565b80601f016020809104026020016040519081016040528092919081815260200182805461108390611811565b80156110d05780601f106110a5576101008083540402835291602001916110d0565b820191906000526020600020905b8154815290600101906020018083116110b357829003601f168201915b5050506007909301549192505060ff8116906001600160a01b036101009091041689565b6060600082600381111561110a5761110a611415565b141561113457505060408051808201909152600881526724b6b837b93a32b960c11b602082015290565b600182600381111561114857611148611415565b141561117257505060408051808201909152600881526722bc3837b93a32b960c11b602082015290565b600282600381111561118657611186611415565b14156111b057505060408051808201909152600881526729bab8383634b2b960c11b602082015290565b60038260038111156111c4576111c4611415565b14156111f157505060408051808201909152600b81526a2234b9ba3934b13aba37b960a91b602082015290565b505060408051808201909152600c81526b556e6b6e6f776e20526f6c6560a01b602082015290565b82805461122590611811565b90600052602060002090601f016020900481019282611247576000855561128d565b82601f1061126057805160ff191683800117855561128d565b8280016001018555821561128d579182015b8281111561128d578251825591602001919060010190611272565b5061129992915061129d565b5090565b5b80821115611299576000815560010161129e565b634e487b7160e01b600052604160045260246000fd5b600082601f8301126112d957600080fd5b813567ffffffffffffffff808211156112f4576112f46112b2565b604051601f8301601f19908116603f0116810190828211818310171561131c5761131c6112b2565b8160405283815286602085880101111561133557600080fd5b836020870160208301376000602085830101528094505050505092915050565b6000806040838503121561136857600080fd5b823567ffffffffffffffff8082111561138057600080fd5b61138c868387016112c8565b935060208501359150808211156113a257600080fd5b506113af858286016112c8565b9150509250929050565b60005b838110156113d45781810151838201526020016113bc565b838111156113e3576000848401525b50505050565b600081518084526114018160208601602086016113b9565b601f01601f19169290920160200192915050565b634e487b7160e01b600052602160045260246000fd5b6004811061144957634e487b7160e01b600052602160045260246000fd5b9052565b60e08152600061146060e083018a6113e9565b8281036020840152611472818a6113e9565b9050828103604084015261148681896113e9565b9050828103606084015261149a81886113e9565b905082810360808401526114ae81876113e9565b9150506114be60a083018561142b565b6001600160a01b039290921660c091909101529695505050505050565b6000602082840312156114ed57600080fd5b81356001600160a01b038116811461150457600080fd5b9392505050565b600061012080835261151f8184018d6113e9565b90508281036020840152611533818c6113e9565b90508281036040840152611547818b6113e9565b9050828103606084015261155b818a6113e9565b9050828103608084015261156f81896113e9565b905082810360a084015261158381886113e9565b905082810360c084015261159781876113e9565b905082810360e08401526115ab81866113e9565b91505060018060a01b0383166101008301529a9950505050505050505050565b8035600481106115da57600080fd5b919050565b600080600080600080600080610100898b0312156115fc57600080fd5b883567ffffffffffffffff8082111561161457600080fd5b6116208c838d016112c8565b995060208b013591508082111561163657600080fd5b6116428c838d016112c8565b985060408b013591508082111561165857600080fd5b6116648c838d016112c8565b975060608b013591508082111561167a57600080fd5b6116868c838d016112c8565b965060808b013591508082111561169c57600080fd5b6116a88c838d016112c8565b955060a08b01359150808211156116be57600080fd5b6116ca8c838d016112c8565b945060c08b01359150808211156116e057600080fd5b506116ed8b828c016112c8565b9250506116fc60e08a016115cb565b90509295985092959890939650565b600061012080835261171f8184018d6113e9565b90508281036020840152611733818c6113e9565b90508281036040840152611747818b6113e9565b9050828103606084015261175b818a6113e9565b9050828103608084015261176f81896113e9565b905082810360a084015261178381886113e9565b905082810360c084015261179781876113e9565b9150506117a760e083018561142b565b6001600160a01b0392909216610100919091015298975050505050505050565b6000602082840312156117d957600080fd5b611504826115cb565b60208152600061150460208301846113e9565b600082516118078184602087016113b9565b9190910192915050565b600181811c9082168061182557607f821691505b6020821081141561184657634e487b7160e01b600052602260045260246000fd5b50919050565b600080835481600182811c91508083168061186857607f831692505b602080841082141561188857634e487b7160e01b86526022600452602486fd5b81801561189c57600181146118ad576118da565b60ff198616895284890196506118da565b60008a81526020902060005b868110156118d25781548b8201529085019083016118b9565b505084890196505b509498975050505050505050565b600060001982141561190a57634e487b7160e01b600052601160045260246000fd5b506001019056fea2646970667358221220fdb14188342672e18a4b834ec3a637e1db85f38549e66c2b255d76fc58cced1764736f6c63430008090033",
  "linkReferences": {},
  "deployedLinkReferences": {}
}